:030000000200E714
:0C00E700787FE4F6D8FD75812002012E20
:0702970002080002010C0047
:0D028A00120003D2B212017312002680F898
:04022B007F057E00CD
:10022F00D3EF9400EE940040147D6E7C00ED1D70B2
:0D023F00011CED4C70F7EF1F70E61E80E310
:01024C00228F
:10017300E4FF12026E92907F0112026E92917F024F
:1001830012026E92927F0312026E92937F04120206
:100193006E92B27F0512026E92B37F0612026E92C6
:1001A300B47F0712026E92A07F0812026E92A17FA3
:1001B3000912026E92A27F0A12026E92A37F0B12A1
:1001C300026E92A47F0C12026E92A57F0D12026E34
:0301D30092A722CE
:1000260020941512022B20940663090112024D300A
:1000360094FD12022B3094FD20951512022B20956B
:100046000663090212024D3095FD12022B3095FD12
:1000560020961512022B20960663090412024D30D3
:1000660096FD12022B3096FD20971512022B209733
:100076000663090812024D3097FD12022B3097FDD8
:1000860020B51512022B20B50663091012024D3059
:10009600B5FD12022B30B5FD20B61512022B20B687
:1000A6000663092012024D30B6FD12022B30B6FD52
:1000B60020B71512022B20B70663094012024D30F5
:1000C600B7FD12022B30B7FD20A61512022B20A673
:1000D6000663082012024D30A6FD12022B30A6FD43
:0100E60022F7
:10026E00C200AD09AC08EDAE04A807088006CEA208
:0B027E00E713CE13D8F8139200A20083
:010289002252
:1000030053890F758920758DFD758BFDD28E53989D
:0D0013000F759850C29FD29ED2AFD2AC2282
:04024D00AF09AE083F
:02025100AD07F7
:10025300EEF510EDF50FC2AC8510993099FDC299FA
:0A026300850F993099FDC299D2ACC5
:01026D00226E
:030023000201D601
:1001D600C0E0C0D075D000C005C006C00730983A50
:1001E600C298E50C700CF50AF50BE599420B050C67
:1001F6008028E50CB40123E50B750B00F50AE5999B
:10020600420BE4F50CE50BB4010AE50AB44005120D
:10021600024D8006850A08850B09D007D006D00551
:05022600D0D0D0E03251
:1000F30002028AE493A3F8E493A34003F68001F297
:1001030008DFF48029E493A3F85407240CC8C3330D
:10011300C4540F4420C8834004F456800146F6DFDC
:10012300E4800B0102040810204080900297E47ED3
:10013300019360BCA3FF543F30E509541FFEE493D1
:10014300A360010ECF54C025E060A840B8E493A398
:10015300FAE493A3F8E493A3C8C582C8CAC583CAC3
:10016300F0A3C8C582C8CAC583CADFE9DEE780BE7B
:01029E00005F
:00000001FF
